:1000000029C0000037C0000035C0000033C0000028
:1000100051C1000026C10000FBC00000D0C000009C
:10002000A5C000007AC000004FC0000024C000003E
:1000300021C000001FC000001DC000001BC0000048
:1000400019C0000017C0000015C0000013C0000058
:1000500011C0000011241FBECFE5D8E0DEBFCDBF28
:1000600020E0A0E6B0E001C01D92A038B207E1F7A1
:100070004AD159C1C5CF1F920F920FB60F921124CA
:100080002F933F934F935F936F937F938F939F93A0
:10009000AF93BF93EF93FF93E0917600F0917700D9
:1000A000309709F00995FF91EF91BF91AF919F9122
:1000B0008F917F916F915F914F913F912F910F9011
:1000C0000FBE0F901F9018951F920F920FB60F92B0
:1000D00011242F933F934F935F936F937F938F934D
:1000E0009F93AF93BF93EF93FF93E0917400F091D0
:1000F0007500309709F00995FF91EF91BF91AF918D
:100100009F918F917F916F915F914F913F912F912F
:100110000F900FBE0F901F9018951F920F920FB661
:100120000F9211242F933F934F935F936F937F937D
:100130008F939F93AF93BF93EF93FF93E0917200E0
:10014000F0917300309709F00995FF91EF91BF91FD
:10015000AF919F918F917F916F915F914F913F915F
:100160002F910F900FBE0F901F9018951F920F9216
:100170000FB60F9211242F933F934F935F936F937A
:100180007F938F939F93AF93BF93EF93FF93E091F0
:100190007000F0917100309709F00995FF91EF918F
:1001A000BF91AF919F918F917F916F915F914F918F
:1001B0003F912F910F900FBE0F901F9018951F9297
:1001C0000F920FB60F9211242F933F934F935F938B
:1001D0006F937F938F939F93AF93BF93EF93FF930F
:1001E000E0916E00F0916F00309709F00995FF9152
:1001F000EF91BF91AF919F918F917F916F915F919F
:100200004F913F912F910F900FBE0F901F90189517
:100210001F920F920FB60F9211242F933F934F937B
:100220005F936F937F938F939F93AF93BF93EF935E
:10023000FF93E0916C00F0916D00309709F0099503
:10024000FF91EF91BF91AF919F918F917F916F91AE
:100250005F914F913F912F910F900FBE0F901F9084
:1002600018951F920F920FB60F9211242F933F9360
:100270004F935F936F937F938F939F93AF93BF93AE
:10028000EF93FF93E0916A00F0916B00309709F0D3
:100290000995FF91EF91BF91AF919F918F917F91C0
:1002A0006F915F914F913F912F910F900FBE0F90E3
:1002B0001F9018951F920F920FB60F9211242F9333
:1002C0003F934F935F936F937F938F939F93AF93DE
:1002D000BF93EF93FF93E0916800F091690030972E
:1002E00009F00995FF91EF91BF91AF919F918F9187
:1002F0007F916F915F914F913F912F910F900FBE22
:100300000F901F901895B89A8EB581608EBD21E030
:100310008CB59DB58F309742D8F388B3822788BBC0
:0A0320001DBC1CBCF5CFF894FFCF04
:00000001FF
