:1000000029C0000042C0000040C000003EC0000007
:100010003CC000003AC0000038C0000036C00000FC
:1000200034C0000032C0000030C000002EC000000C
:100030002CC000002AC0000028C0000026C000001C
:100040006BC0000022C0000020C000001EC00000E5
:100050001CC0000011241FBECFE5D8E0DEBFCDBF1D
:1000600010E0A0E6B0E0EAEAF4E002C005900D92EC
:10007000A836B107D9F720E0A8E6B0E001C01D928C
:10008000A237B207E1F7A9D10EC2BACF3E9A3F9A82
:100090003D9886B1887F86B986B1876086B9379AE0
:1000A000339A08956115710599F190916800911145
:1000B00031C091E09093680097B1907E97B997B165
:1000C000892B87B9369A349915C080E090E0DC011D
:1000D0000196A11DB11D349908C0803523EC92070B
:1000E000A105B105A9F784E010C08035934CA105A6
:1000F000B10551F0349A84B125B190E0922BFB0107
:100100009183808380E001C084E0109268000895AC
:1001100082E0089583E008951F920F920FB60F9228
:1001200011242F933F934F935F936F937F938F93FC
:100130009F93AF93BF93EF93FF9380916D008111D5
:1001400013C084B125B1E0917000F091710090E08E
:10015000922B9183808310926800E0916E00F09161
:100160006F00099533982CC084B125B1E0917000DF
:10017000F091710090E0922B9183808380916900CF
:100180008F5F8093690090916A00891309C0109273
:100190006800E0916E00F0916F000995339810C0EF
:1001A00087B1807E87B997B180916900E0916B003B
:1001B000F0916C00E80FF11D8081892B87B9369A88
:1001C000FF91EF91BF91AF919F918F917F916F912F
:1001D0005F914F913F912F910F900FBE0F901F9005
:1001E00018954130C1F5813091F028F08230D9F076
:1001F000833029F16EC02AB381E090E002C0880FFD
:10020000991F6A95E2F7822B8ABB81E0089527B394
:1002100081E090E002C0880F991F6A95E2F7822B77
:1002200087BB81E0089524B381E090E002C0880F8D
:10023000991F6A95E2F7822B84BB81E0089521B370
:1002400081E090E002C0880F991F6A95E2F7822B47
:1002500081BB81E0089541113EC0813099F028F0C2
:100260008230E9F0833041F138C02AB381E090E078
:1002700002C0880F991F6A95E2F7809582238ABB96
:1002800081E0089527B381E090E002C0880F991FB4
:100290006A95E2F78095822387BB81E0089524B3B5
:1002A00081E090E002C0880F991F6A95E2F780957F
:1002B000822384BB81E0089521B381E090E002C0F5
:1002C000880F991F6A95E2F78095822381BB81E0B0
:1002D000089581E0089580E0089581E00895413017
:1002E000C1F5813091F028F08230D9F0833029F1C6
:1002F0006EC02BB381E090E002C0880F991F6A9511
:10030000E2F7822B8BBB81E0089528B381E090E077
:1003100002C0880F991F6A95E2F7822B88BB81E0A3
:10032000089525B381E090E002C0880F991F6A9577
:10033000E2F7822B85BB81E0089522B381E090E053
:1003400002C0880F991F6A95E2F7822B82BB81E079
:10035000089541113EC0813099F028F08230E9F0D3
:10036000833041F138C02BB381E090E002C0880FA8
:10037000991F6A95E2F7809582238BBB81E00895EF
:1003800028B381E090E002C0880F991F6A95E2F7D8
:100390008095822388BB81E0089525B381E090E0B9
:1003A00002C0880F991F6A95E2F78095822385BB6A
:1003B00081E0089522B381E090E002C0880F991F88
:1003C0006A95E2F78095822382BB81E0089581E0FF
:1003D000089580E0089581E00895CF93DF9300D0E1
:1003E000CDB7DEB753DE0F2EF0E6EF2EF0E0FF2E96
:1003F000F02D0F2EF8E6CF2EF0E0DF2EF02D870146
:10040000F80161918F0141E082E0EBDE0C151D05E2
:10041000B9F7CE2CDF2C1A821982BE016F5F7F4F95
:1004200080E040DE29813A81220F331F220F331FE3
:10043000220F331FA1E8BCE627D00024880F991FA4
:10044000001C880F991F001C892F902D082FEC2C61
:10045000FD2C10E0101730F441E0F701608182E0DC
:100460003EDF05C040E0F701608182E038DF1F5FBA
:10047000FFEFEF1AFF0A183069F787EA91E6019754
:10048000F1F700C00000C7CFA29FB001B39FC00129
:10049000A39F700D811D1124911DB29F700D811DB0
:0A04A0001124911D0895F894FFCF78
:0804AA0000010203040506072E
:00000001FF
