:1000000029C0000037C0000035C0000033C0000028
:10001000DCC20000B1C2000086C200005BC200006A
:1000200030C2000005C20000DAC10000AFC100000C
:1000300021C000001FC000001DC000001BC0000048
:1000400087C0000017C0000015C0000013C00000EA
:1000500011C0000011241FBECFE5D8E0DEBFCDBF28
:1000600020E0A0E6B0E001C01D92AA38B207E1F797
:10007000FFD232C3C5CF3E9A3F9A3D9886B1887F62
:1000800086B986B1876086B9379A339A0895611523
:10009000710599F190916000911131C091E09093B8
:1000A000600097B1907E97B997B1892B87B9369A3E
:1000B000349915C080E090E0DC010196A11DB11DCE
:1000C000349908C0803523EC9207A105B105A9F742
:1000D00084E010C08035934CA105B10551F0349AED
:1000E00084B125B190E0922BFB019183808380E065
:1000F00001C084E010926000089582E0089583E0DA
:10010000089561157105F1F041155105E9F09091DF
:10011000600091111BC091E0909360001092650007
:100120007093690060936800509367004093660085
:1001300097B1907E97B997B1892B87B9369A339A40
:1001400080E0089582E0089582E0089583E00895B4
:100150001F920F920FB60F9211242F933F934F933C
:100160005F936F937F938F939F93AF93BF93EF931F
:10017000FF9380916500811113C084B125B1E09196
:100180006800F091690090E0922B91838083109237
:100190006000E0916600F0916700099533982CC0EB
:1001A00084B125B1E0916800F091690090E0922B54
:1001B00091838083809161008F5F80936100909133
:1001C0006200891309C010926000E0916600F0910E
:1001D00067000995339810C087B1807E87B997B1C1
:1001E00080916100E0916300F0916400E80FF11DDF
:1001F0008081892B87B9369AFF91EF91BF91AF919A
:100200009F918F917F916F915F914F913F912F912E
:100210000F900FBE0F901F9018954130C1F581309F
:1002200091F028F08230D9F0833029F16EC02AB3E2
:1002300081E090E002C0880F991F6A95E2F7822B57
:100240008ABB81E0089527B381E090E002C0880F67
:10025000991F6A95E2F7822B87BB81E0089524B34A
:1002600081E090E002C0880F991F6A95E2F7822B27
:1002700084BB81E0089521B381E090E002C0880F43
:10028000991F6A95E2F7822B81BB81E008954111A5
:100290003EC0813099F028F08230E9F0833041F19E
:1002A00038C02AB381E090E002C0880F991F6A9598
:1002B000E2F7809582238ABB81E0089527B381E02D
:1002C00090E002C0880F991F6A95E2F7809582231B
:1002D00087BB81E0089524B381E090E002C0880FDD
:1002E000991F6A95E2F78095822384BB81E0089587
:1002F00021B381E090E002C0880F991F6A95E2F770
:100300008095822381BB81E0089581E0089580E09B
:10031000089581E008958FB58E7F8FBD8FB582607F
:100320008FBD8EB588608EBD8EB580618EBD84EF29
:1003300091E09BBD8ABD19BC18BC80E29EE497BDCC
:1003400086BD8EB580648EBD8FB58F7B8FBD8FB51A
:1003500080688FBD8FB58F7E8FBD8FB580628FBD5A
:1003600089B78B7F89BF89B78F7E89BF89B7877F20
:1003700089BF89B78F7D89BF8EB5887F8EBD8EB5C9
:1003800082608EBD08959BBD8ABD08951F920F9215
:100390000FB60F9211242F933F934F935F936F9358
:1003A0007F938F939F93AF93BF93EF93FF93E091CE
:1003B0008000F0918100309709F00995FF91EF914D
:1003C000BF91AF919F918F917F916F915F914F916D
:1003D0003F912F910F900FBE0F901F9018951F9275
:1003E0000F920FB60F9211242F933F934F935F9369
:1003F0006F937F938F939F93AF93BF93EF93FF93ED
:10040000E0917E00F0917F00309709F00995FF910F
:10041000EF91BF91AF919F918F917F916F915F917C
:100420004F913F912F910F900FBE0F901F901895F5
:100430001F920F920FB60F9211242F933F934F9359
:100440005F936F937F938F939F93AF93BF93EF933C
:10045000FF93E0917C00F0917D00309709F00995C1
:10046000FF91EF91BF91AF919F918F917F916F918C
:100470005F914F913F912F910F900FBE0F901F9062
:1004800018951F920F920FB60F9211242F933F933E
:100490004F935F936F937F938F939F93AF93BF938C
:1004A000EF93FF93E0917A00F0917B00309709F091
:1004B0000995FF91EF91BF91AF919F918F917F919E
:1004C0006F915F914F913F912F910F900FBE0F90C1
:1004D0001F9018951F920F920FB60F9211242F9311
:1004E0003F934F935F936F937F938F939F93AF93BC
:1004F000BF93EF93FF93E0917800F09179003097EC
:1005000009F00995FF91EF91BF91AF919F918F9164
:100510007F916F915F914F913F912F910F900FBEFF
:100520000F901F9018951F920F920FB60F921124E3
:100530002F933F934F935F936F937F938F939F93EB
:10054000AF93BF93EF93FF93E0917600F091770024
:10055000309709F00995FF91EF91BF91AF919F916D
:100560008F917F916F915F914F913F912F910F905C
:100570000FBE0F901F9018951F920F920FB60F92FB
:1005800011242F933F934F935F936F937F938F9398
:100590009F93AF93BF93EF93FF93E0917400F0911B
:1005A0007500309709F00995FF91EF91BF91AF91D8
:1005B0009F918F917F916F915F914F913F912F917B
:1005C0000F900FBE0F901F9018951F920F920FB6AD
:1005D0000F9211242F933F934F935F936F937F93C9
:1005E0008F939F93AF93BF93EF93FF93E09172002C
:1005F000F0917300309709F00995FF91EF91BF9149
:10060000AF919F918F917F916F915F914F913F91AA
:100610002F910F900FBE0F901F90189541E065E04D
:1006200083E0FBDD28DD77DE40E050E060E070E055
:1006300080E067CD0895CF93DF9300D0CDB7DEB7CC
:100640001A821982BE016F5F7F4F80E020DD298111
:100650003A81AFEFB3E031D024EF31E040E050E039
:100660000AD0C90190DE0F900F90DF91CF910895CD
:10067000D5DFE1DFFECFA1E21A2EAA1BBB1BFD01D5
:100680000DC0AA1FBB1FEE1FFF1FA217B307E40771
:10069000F50720F0A21BB30BE40BF50B661F771FC9
:1006A000881F991F1A9469F76095709580959095A9
:1006B0009B01AC01BD01CF010895A29FB001B39F82
:1006C000C001A39F700D811D1124911DB29F700D5B
:0C06D000811D1124911D0895F894FFCFA6
:00000001FF
