:1000000029C000003AC0000038C0000036C000001F
:1000100034C0000032C0000030C000002EC000001C
:100020002CC000002AC0000028C0000026C000002C
:1000300024C0000022C0000020C000001EC000003C
:100040001CC000001AC0000018C0000016C000004C
:1000500014C0000011241FBECFE5D8E0DEBFCDBF25
:1000600010E0A0E6B0E0EAE5F7E002C005900D92EE
:10007000A437B107D9F715D36EC3C2CF41E062E010
:1000800081E00ED18FEC97E00197F1F700C00000FE
:1000900040E062E081E004D18FEC97E00197F1F756
:1000A00000C000000895682F80E0EAD141E060E0E0
:1000B00081E0F6D040E061E081E0F2D0DFDF8FEC5C
:1000C00097E00197F1F700C0000008950F931F9388
:1000D000CF93FC01208121110BC08C01C0E080E096
:1000E000E2DFCF5FF801EC0FF11D90819923B9F3A6
:1000F000CF911F910F910895682F80E0C1D140E00A
:1001000060E081E0CDD040E061E081E0C9D0B6DFC1
:100110008FEC97E00197F1F700C00000089581E0AF
:10012000EBDF8FE097E20197F1F700C00000089540
:100130002FE788E391E0215080409040E1F700C034
:1001400000006FEF80E0B2D141E060E081E02AD0B2
:1001500041E061E081E026D041E062E081E022D030
:1001600082E0CADF8FEC97E00197F1F700C0000052
:1001700088E3C2DF8FEC97E00197F1F700C0000041
:100180008CE0BADF8FEC97E00197F1F700C0000038
:10019000C6DF86E0B1DF8FEC97E00197F1F700C092
:1001A000000008954130C1F5813091F028F082308F
:1001B000D9F0833029F16EC02AB381E090E002C00B
:1001C000880F991F6A95E2F7822B8ABB81E0089518
:1001D00027B381E090E002C0880F991F6A95E2F78B
:1001E000822B87BB81E0089524B381E090E002C0B8
:1001F000880F991F6A95E2F7822B84BB81E00895EE
:1002000021B381E090E002C0880F991F6A95E2F760
:10021000822B81BB81E0089541113EC0813099F06D
:1002200028F08230E9F0833041F138C02AB381E010
:1002300090E002C0880F991F6A95E2F780958223AB
:100240008ABB81E0089527B381E090E002C0880F67
:10025000991F6A95E2F78095822387BB81E0089514
:1002600024B381E090E002C0880F991F6A95E2F7FD
:100270008095822384BB81E0089521B381E090E0E2
:1002800002C0880F991F6A95E2F78095822381BB8F
:1002900081E0089581E0089580E0089581E0089567
:1002A0004130C1F5813091F028F08230D9F08330AF
:1002B00029F16EC02BB381E090E002C0880F991F36
:1002C0006A95E2F7822B8BBB81E0089528B381E029
:1002D00090E002C0880F991F6A95E2F7822B88BBD5
:1002E00081E0089525B381E090E002C0880F991F56
:1002F0006A95E2F7822B85BB81E0089522B381E005
:1003000090E002C0880F991F6A95E2F7822B82BBAA
:1003100081E0089541113EC0813099F028F082308B
:10032000E9F0833041F138C02BB381E090E002C0A6
:10033000880F991F6A95E2F7809582238BBB81E035
:10034000089528B381E090E002C0880F991F6A9554
:10035000E2F78095822388BB81E0089525B381E090
:1003600090E002C0880F991F6A95E2F7809582237A
:1003700085BB81E0089522B381E090E002C0880F40
:10038000991F6A95E2F78095822382BB81E00895E8
:1003900081E0089580E0089581E00895843008F0B8
:1003A00060C0683008F05FC08130E1F030F082302A
:1003B00071F1833009F440C058C029B381E090E066
:1003C000062E02C0880F991F0A94E2F730E08223BC
:1003D000932302C0959587956A95E2F7FA01808389
:1003E00081E0089526B381E090E0062E02C0880FD8
:1003F000991F0A94E2F730E08223932302C0959577
:1004000087956A95E2F7FA01808381E0089523B326
:1004100081E090E0062E02C0880F991F0A94E2F74F
:1004200030E08223932302C0959587956A95E2F781
:10043000FA01808381E0089520B381E090E0062EE8
:1004400002C0880F991F0A94E2F730E082239323B9
:1004500002C0959587956A95E2F7FA01808381E05D
:10046000089580E0089580E0089581E00895843043
:1004700028F481E0683018F080E0089580E0089565
:10048000813049F028F0823049F0833051F00CC0BF
:100490006BBB81E0089568BB81E0089565BB81E096
:1004A000089562BB81E0089580E00895813071F085
:1004B00028F0823099F08330C9F020C081E06130AB
:1004C00009F080E081958ABB81E0089581E0613088
:1004D00009F080E0819587BB81E0089581E061307B
:1004E00009F080E0819584BB81E0089581E061306E
:1004F00009F080E0819581BB81E0089580E0089556
:1005000060E082E0B4DF61E082E0B1DF62E082E0DF
:10051000AEDF63E082E0ABDF41E064E082E042DE38
:1005200041E065E082E03EDE41E066E082E03ADE06
:1005300041E067E082E036DE41E064E082E0B0DE88
:1005400041E065E082E0ACDE41E066E082E0A8DE0A
:1005500041E067E082E0A4CE0895DF92EF92FF923F
:100560000F931F93CF93DF931F92CDB7DEB7E12C8C
:10057000F12CDD24DA9404E00E0D40E0602F82E0DF
:100580008FDE10E0AE014F5F5F4F612F82E006DF2C
:10059000998191112BC083ED90E30197F1F700C091
:1005A0000000AE014F5F5F4F612F82E0F7DE89816F
:1005B000811109C0F70194E0199FE00DF11D11248C
:1005C000E05AFF4FD080AE014F5F5F4F612F82E056
:1005D000E5DE898181110DC0AE014F5F5F4F612F54
:1005E00082E0DCDE99819923B9F303C01F5F1430E8
:1005F00049F641E0602F82E053DE8FEFE81AF80AF7
:1006000094E0E916F10409F0B6CF8D2D0F90DF913B
:10061000CF911F910F91FF90EF90DF90089588DDAB
:100620006FCF0895CF93DF938B3249F018F48A325D
:1006300061F034C08D3231F08F3259F02FC0C42FA9
:10064000C60F12C0C62FC41B0FC0469FC02D112459
:100650000BC0442329F0862F642F71D0C82F04C00B
:1006600080E790E033DD1AC05ADDCA3020F480E321
:100670008C0F19DD13C0DDECCD9FD12D1124D69543
:10068000D695D69580E38D0F0EDDDD0F8D2F880F6B
:10069000880FD80F8C2F8D1B805D05DDDF91CF91EA
:1006A0000895BDDFD12CF12C00E010E0E12CCC242A
:1006B000C39453DFC82F8F3FE1F3D0EDD80FDA306A
:1006C000F8F4DD2021F02BDD0E2D1E2D02C0F110DF
:1006D0000DC0612F660F162F110F110F610F1D2F07
:1006E000160F8C2FE0DCDE2CFE2CE3CF402F440FC6
:1006F000042F000F000F400F0D2F040FD4DCD9CFB3
:100700008D7F8D3221F086ED8C0F823020F48C2F7E
:10071000CADCFC2ECECFCD3349F4402F612F8F2D74
:1007200081DFDC2CFE2C0E2D1E2DC3CFCF3309F024
:10073000C0CFF5DCDE2CFE2C0E2D1E2DBACF991B62
:1007400079E004C0991F961708F0961B881F7A95C8
:0A075000C9F780950895F894FFCFD3
:10075A003738392F3435362A3132332D3F303D2B55
:04076A004572720062
:00000001FF
