S0180000476363426F61726450726F6A656374342E737265630C
S113000029C0000042C0000040C000003EC0000003
S11300103CC000003AC0000038C0000036C00000F8
S113002034C0000032C0000030C000002EC0000008
S11300302CC0000069C2000028C00000A2C2000059
S113004024C0000022C0000020C000001EC0000028
S11300501CC0000011241FBECFE5D8E0DEBFCDBF19
S113006010E0A0E6B0E0E2E2F6E002C005900D92F6
S1130070A036B107D9F720E0A0E6B0E001C01D9298
S1130080A936B207E1F7B9D2CAC2BACF41E063E0F8
S113009081E021D18FEC97E00197F1F700C00000D7
S11300A040E063E081E017D18FEC97E00197F1F72E
S11300B000C000000895CF93C82F41E061E081E0C3
S11300C00AD140E062E081E006D16C2F62956F7046
S11300D080E089D1DBDF6C2F80E085D1D7DF8FEC26
S11300E097E00197F1F700C00000CF910895CF93F6
S11300F0C82F40E061E081E0EED040E062E081E0C2
S1130100EAD06C2F62956F7080E06DD1BFDF6C2FE9
S113011080E069D1BBDF8FEC97E00197F1F700C075
S11301200000CF91089581E0E2DF8FE19EE4019722
S1130130F1F700C0000008952FE788E391E0215013
S113014080409040E1F700C0000041E064E080E0BE
S11301503AD041E065E080E036D041E066E080E0FE
S113016032D041E067E080E02ED041E061E081E000
S11301702AD041E062E081E026D041E063E081E002
S113018022D082E0B4DF8FE59AEE0197F1F700C048
S1130190000088E2ACDF8FEC97E00197F1F700C034
S11301A000008CE0A4DF8FEC97E00197F1F700C02A
S11301B00000B9DF86E09BDF8FEC97E00197F1F751
S11301C000C000000895843008F07BC0683008F057
S11301D07AC04130C1F5813091F028F08230D9F0F5
S11301E0833029F172C02AB381E090E002C0880F05
S11301F0991F6A95E2F7822B8ABB81E0089527B3A1
S113020081E090E002C0880F991F6A95E2F7822B83
S113021087BB81E0089524B381E090E002C0880F99
S1130220991F6A95E2F7822B84BB81E0089521B37C
S113023081E090E002C0880F991F6A95E2F7822B53
S113024081BB81E00895411142C0813099F028F0CA
S11302508230E9F0833041F13CC02AB381E090E080
S113026002C0880F991F6A95E2F7809582238ABBA2
S113027081E0089527B381E090E002C0880F991FC0
S11302806A95E2F78095822387BB81E0089524B3C1
S113029081E090E002C0880F991F6A95E2F780958B
S11302A0822384BB81E0089521B381E090E002C001
S11302B0880F991F6A95E2F78095822381BB81E0BC
S11302C0089580E0089580E0089581E0089580E035
S11302D0089581E00895843008F07BC0683008F008
S11302E07AC04130C1F5813091F028F08230D9F0E4
S11302F0833029F172C02BB381E090E002C0880FF3
S1130300991F6A95E2F7822B8BBB81E0089528B38D
S113031081E090E002C0880F991F6A95E2F7822B72
S113032088BB81E0089525B381E090E002C0880F86
S1130330991F6A95E2F7822B85BB81E0089522B369
S113034081E090E002C0880F991F6A95E2F7822B42
S113035082BB81E00895411142C0813099F028F0B8
S11303608230E9F0833041F13CC02BB381E090E06E
S113037002C0880F991F6A95E2F7809582238BBB90
S113038081E0089528B381E090E002C0880F991FAE
S11303906A95E2F78095822388BB81E0089525B3AE
S11303A081E090E002C0880F991F6A95E2F780957A
S11303B0822385BB81E0089522B381E090E002C0EE
S11303C0880F991F6A95E2F78095822382BB81E0AA
S11303D0089580E0089580E0089581E0089580E024
S11303E0089581E00895843050F56295607F8130EE
S11303F071F028F0823099F08330C9F022C08BB3B9
S11304008F708BBB8BB3682B6BBB81E0089588B373
S11304108F7088BB88B3682B68BB81E0089585B36F
S11304208F7085BB85B3682B65BB81E0089582B36B
S11304308F7082BB82B3682B62BB81E0089580E039
S1130440089581E0089510BC83E389B959985898B8
S1130450529886E880BD579856985598549A539A5E
S1130460089590916000911122C091E090936000F2
S11304705D9916C040E050E0BA014F5F5F4F6F4F87
S11304807F4F5D9908C0403197E2590761057105B6
S1130490A1F784E009C0403157426105710519F0A4
S11304A08CB980E001C084E010926000089583E07C
S11304B00895009729F120916000211123C021E0C3
S11304C0209360005F9915C040E050E0BA014F5F8F
S11304D05F4F6F4F7F4F5F9907C0403127E252074C
S11304E061057105A1F708C04031574261057105E6
S11304F019F02CB1FC0120831092600084E008956F
S113050082E0089583E008951F920F920FB60F9230
S113051011242F933F934F935F936F937F938F9304
S11305209F93AF93BF93EF93FF93809163009CB12C
S1130530E0916500F0916600E80FF11D90838F5FF4
S1130540809363009091640089130AC01092630041
S113055010926000E0916100F09162000995579853
S1130560FF91EF91BF91AF919F918F917F916F9187
S11305705F914F913F912F910F900FBE0F901F905D
S113058018951F920F920FB60F9211242F933F9339
S11305904F935F936F937F938F939F93AF93BF9387
S11305A0EF93FF93809163008F5F80936300E091EA
S11305B06700F0916800E80FF11D808181110BC084
S11305C01092630010926000E0916100F09162006B
S11305D00995569801C08CB9FF91EF91BF91AF91E5
S11305E09F918F917F916F915F914F913F912F9147
S11305F00F900FBE0F901F901895CF93DF931F920B
S1130600CDB7DEB720DF98DD8EDDCE01019651DF58
S11306108111FBCF89814FDD898123DFF6CFF894E7
S1050620FFCF06
S9030000FC
