S0180000476363426F61726450726F6A656374322E737265630E
S113000029C000002FC000002DC000002BC000003C
S113001029C0000027C0000025C0000023C0000044
S113002021C000001FC000001DC000001BC0000054
S113003019C0000017C0000015C0000013C0000064
S113004011C000000FC000000DC000000BC0000074
S113005009C0000011241FBECFE5D8E0DEBFCDBF2C
S11300601FD247C2CDCF4130C1F5813091F028F085
S11300708230D9F0833029F16EC02AB381E090E058
S113008002C0880F991F6A95E2F7822B8ABB81E030
S1130090089527B381E090E002C0880F991F6A9504
S11300A0E2F7822B87BB81E0089524B381E090E0DE
S11300B002C0880F991F6A95E2F7822B84BB81E006
S11300C0089521B381E090E002C0880F991F6A95DA
S11300D0E2F7822B81BB81E0089541113EC081305B
S11300E099F028F08230E9F0833041F138C02AB326
S11300F081E090E002C0880F991F6A95E2F780952D
S113010082238ABB81E0089527B381E090E002C096
S1130110880F991F6A95E2F78095822387BB81E057
S1130120089524B381E090E002C0880F991F6A9576
S1130130E2F78095822384BB81E0089521B381E0B6
S113014090E002C0880F991F6A95E2F78095822398
S113015081BB81E0089581E0089580E0089581E005
S113016008954130C1F5813091F028F08230D9F002
S1130170833029F16EC02BB381E090E002C0880F78
S1130180991F6A95E2F7822B8BBB81E0089528B30F
S113019081E090E002C0880F991F6A95E2F7822BF4
S11301A088BB81E0089525B381E090E002C0880F08
S11301B0991F6A95E2F7822B85BB81E0089522B3EB
S11301C081E090E002C0880F991F6A95E2F7822BC4
S11301D082BB81E0089541113EC0813099F028F03E
S11301E08230E9F0833041F138C02BB381E090E0F4
S11301F002C0880F991F6A95E2F7809582238BBB12
S113020081E0089528B381E090E002C0880F991F2F
S11302106A95E2F78095822388BB81E0089525B32F
S113022081E090E002C0880F991F6A95E2F78095FB
S1130230822385BB81E0089522B381E090E002C06F
S1130240880F991F6A95E2F78095822382BB81E02B
S1130250089581E0089580E0089581E00895843050
S113026008F060C0683008F05FC08130E1F030F021
S1130270823071F1833009F440C058C029B381E061
S113028090E0062E02C0880F991F0A94E2F730E02E
S11302908223932302C0959587956A95E2F7FA0124
S11302A0808381E0089526B381E090E0062E02C0A9
S11302B0880F991F0A94E2F730E08223932302C047
S11302C0959587956A95E2F7FA01808381E0089510
S11302D023B381E090E0062E02C0880F991F0A9490
S11302E0E2F730E08223932302C0959587956A95BF
S11302F0E2F7FA01808381E0089520B381E090E081
S1130300062E02C0880F991F0A94E2F730E0822378
S1130310932302C0959587956A95E2F7FA01808345
S113032081E0089580E0089580E0089581E00895D3
S11303301F93CF93DF93C62FD72F182F40E0672F3B
S11303408C2F91DE111104C041E06D2F8C2F09DF39
S1130350DF91CF911F9108951F93CF93DF931F9245
S1130360CDB7DEB7962F672F182F81E08983AE01B2
S11303704F5F5F4F892F73DF813081F4123028F48F
S11303809981992371F080E00CC01250123040F42E
S113039081E09981913029F080E003C080E001C0C0
S11303A080E00F90DF91CF911F91089541E061E0CB
S11303B083E059DE41E062E083E055DE41E063E042
S11303C083E051DE41E064E083E04DDE60E070E014
S11303D080E0AEDF60E071E080E0AADF60E072E020
S11303E080E0A6DF60E073E080E0A2DF60E074E01C
S11303F080E09ECF089540E061E083E0B2DE40E01B
S113040062E083E0AEDE40E063E083E0AADE40E049
S113041064E083E0A6CE089541E061E083E0A1DEDC
S113042040E062E083E09DDE41E063E083E099DE4A
S113043040E064E083E095CE089540E061E083E02D
S113044090DE41E062E083E08CDE40E063E083E044
S113045088DE41E064E083E084CE089540E061E01A
S113046083E07FDE41E062E083E07BDE41E063E045
S113047083E077DE40E064E083E073CE089541E0FA
S113048061E083E06EDE40E062E083E06ADE40E04B
S113049063E083E066DE41E064E083E062CE0895D9
S11304A085DF60E070E080E057DF813011F4A3DF86
S11304B0F8CF60E071E080E04FDF813011F4ACDF11
S11304C0F0CF60E072E080E047DF813011F4B5DF07
S11304D0E8CF60E073E080E03FDF813011F4BEDFFD
S11304E0E0CF60E074E080E037DF8130D1F6C7DF31
S10904F0D8CFF894FFCF01
S9030000FC
